:0200000490006A
:1000000000000824E92300900D2000900F200090AC
:100010001120009013200090152000900000000097
:10002000000000000000000000000000E1980090C7
:10003000172000900000000081990090E599009041
:1000400039240090392400903924009039240090FC
:1000500039240090392400903924009039240090EC
:100060003924009039240090192000902520009018
:1000700035200090392400903924009039240090D4
:1000800039240090392400903924009039240090BC
:1000900039240090392400903924009039240090AC
:1000A000392400903924009039240090392400909C
:1000B000392400903924009039240090392400908C
:1000C000392400903924009039240090392400907C
:1000D000392400903924009039240090392400906C
:1000E0004520009039240090000000003924009041
:1000F000392400903924009039240090392400904C
:100100003924009051200090392400903924009027
:1001100061200090392400907120009039240090D3
:10012000392400903924009039240090392400901B
:10013000392400903924009039240090392400900B
:1001400000000000000000000000000000000000AF
:1001500039240090392400903924009039240090EB
:1001600039240090392400903924009039240090DB
:1001700039240090392400903924009039240090CB
:1001800039240090392400903924009039240090BB
:1001900039240090392400903924009039240090AB
:1001A000392400903924009039240090392400909B
:1001B000392400903924009039240090392400908B
:1001C000392400903924009039240090392400907B
:1001D000392400903924009039240090392400906B
:1001E000392400903924009039240090392400905B
:1001F000392400903924009039240090392400904B
:10020000392400903924009039240090392400903A
:10021000392400903924009039240090392400902A
:100220003924009039240090392400900000000007
:1002300039240090392400900000000039240090F7
:1002400039240090392400903924009039240090FA
:1002500039240090392400903924009039240090EA
:1002600039240090392400903924009039240090DA
:1002700039240090392400903924009000000000B7
:1002800039240090392400903924009000000000A7
:08029000000000003924009079
:1002C00010B5054C237833B9044B13B10448AFF390
:1002D00000800123237010BDE0090024000000000D
:1002E0004817019008B5034B1BB103490348AFF30E
:1002F000008008BD00000000E409002448170190B8
:1003000081F0004102E000BF83F0004330B54FEAC6
:1003100041044FEA430594EA050F08BF90EA020F33
:100320001FBF54EA000C55EA020C7FEA645C7FEAC6
:10033000655C00F0E2804FEA5454D4EB5555B8BFE9
:100340006D420CDD2C4480EA020281EA030382EA5A
:10035000000083EA010180EA020281EA0303362DEC
:1003600088BF30BD11F0004F4FEA01314FF4801CBF
:100370004CEA113102D0404261EB410113F0004FD1
:100380004FEA03334CEA133302D0524263EB430388
:1003900094EA050F00F0A780A4F10104D5F1200E26
:1003A0000DDB02FA0EFC22FA05F2801841F1000181
:1003B00003FA0EF2801843FA05F359410EE0A5F155
:1003C00020050EF1200E012A03FA0EFC28BF4CF086
:1003D000020C43FA05F3C01851EBE37101F000453C
:1003E00007D54FF0000EDCF1000C7EEB00006EEB49
:1003F0000101B1F5801F1BD3B1F5001F0CD34908D3
:100400005FEA30004FEA3C0C04F101044FEA445229
:1004100012F5800F80F09A80BCF1004F08BF5FEAB0
:10042000500C50F1000041EB045141EA050130BD90
:100430005FEA4C0C404141EB0101013C28BFB1F5A2
:10044000801FE9D291F0000F04BF01460020B1FAED
:1004500081F308BF2033A3F10B03B3F120020CDAC0
:100460000C3208DD02F1140CC2F10C0201FA0CF09E
:1004700021FA02F10CE002F11402D8BFC2F1200C03
:1004800001FA02F120FA0CFCDCBF41EA0C019040B9
:10049000E41AA2BF01EB0451294330BD6FEA040402
:1004A0001F3C1CDA0C340EDC04F11404C4F12002ED
:1004B00020FA04F001FA02F340EA030021FA04F3FF
:1004C00045EA030130BDC4F10C04C4F1200220FA56
:1004D00002F001FA04F340EA0300294630BD21FA94
:1004E00004F0294630BD94F0000F83F4801306BF5A
:1004F00081F480110134013D4EE77FEA645C18BF4E
:100500007FEA655C29D094EA050F08BF90EA020FE4
:1005100005D054EA000C04BF1946104630BD91EADC
:10052000030F1EBF0021002030BD5FEA545C05D1DF
:100530004000494128BF41F0004130BD14F580041E
:100540003CBF01F5801130BD01F0004545F0FE4192
:1005500041F470014FF0000030BD7FEA645C1ABFC7
:10056000194610467FEA655C1CBF0B46024650EAFE
:10057000013406BF52EA033591EA030F41F400212A
:1005800030BD00BF90F0000F04BF0021704730B5B0
:100590004FF4806404F132044FF000054FF0000185
:1005A00050E700BF90F0000F04BF0021704730B546
:1005B0004FF4806404F1320410F0004548BF40421B
:1005C0004FF000013EE700BF42004FEAE2014FEA70
:1005D00031014FEA02701FBF12F07F4393F07F4F4B
:1005E00081F06051704732F07F4208BF704793F04E
:1005F0007F4F04BF41F40021704730B54FF4607461
:1006000001F0004521F000411CE700BF50EA010263
:1006100008BF704730B54FF000050AE050EA01020C
:1006200008BF704730B511F0004502D5404261EB7C
:1006300041014FF4806404F132045FEA915C3FF4BD
:10064000D8AE4FF003025FEADC0C18BF03325FEA5A
:10065000DC0C18BF033202EBDC02C2F1200300FA0B
:1006600003FC20FA02F001FA03FE40EA0E0021FA30
:1006700002F11444BDE600BF53B94AB9002908BFCE
:1006800000281CBF4FF0FF314FF0FF3000F074B96D
:10069000ADF1080C6DE904CE00F006F8DDF804E0D9
:1006A000DDE9022304B070472DE9F047089D0446B8
:1006B0008E46002B4DD18A42944669D9B2FA82F215
:1006C00052B101FA02F3C2F1200120FA01F10CFA51
:1006D00002FC41EA030E94404FEA1C48210CBEFB89
:1006E000F8F61FFA8CF708FB16E341EA034306FB12
:1006F00007F199420AD91CEB030306F1FF3080F0A1
:100700001F81994240F21C81023E63445B1AA4B2ED
:10071000B3FBF8F008FB103344EA034400FB07F78F
:10072000A7420AD91CEB040400F1FF3380F00A81D0
:10073000A74240F207816444023840EA0640E41BC5
:1007400000261DB1D4400023C5E900433146BDE871
:10075000F0878B4209D9002D00F0EF800026C5E913
:10076000000130463146BDE8F087B3FA83F6002E2B
:100770004AD18B4202D3824200F2F980841A61EBA3
:10078000030301209E46002DE0D0C5E9004EDDE7C1
:1007900002B9FFDEB2FA82F2002A40F09280A1EBA9
:1007A0000C014FEA1C471FFA8CFE0126200CB1FBFE
:1007B000F7F307FB131140EA01410EFB03F08842F7
:1007C00008D91CEB010103F1FF3802D2884200F284
:1007D000CB804346091AA4B2B1FBF7F007FB101116
:1007E00044EA01440EFB00FEA64508D91CEB0404B4
:1007F00000F1FF3102D2A64500F2BB800846A4EB0F
:100800000E0440EA03409CE7C6F12007B34022FAF9
:1008100007FC4CEA030C20FA07F401FA06F31C4328
:10082000F9404FEA1C4900FA06F3B1FBF9F8200C35
:100830001FFA8CFE09FB181140EA014108FB0EF07B
:10084000884202FA06F20BD91CEB010108F1FF3ACB
:1008500080F08880884240F28580A8F102086144D7
:10086000091AA4B2B1FBF9F009FB101144EA0141E5
:1008700000FB0EFE8E4508D91CEB010100F1FF3490
:100880006CD28E456AD90238614440EA0840A0FB28
:100890000294A1EB0E01A142C846A64656D353D0FE
:1008A0005DB1B3EB080261EB0E0101FA07F722FA22
:1008B00006F3F1401F43C5E9007100263146BDE84B
:1008C000F087C2F12003D8400CFA02FC21FA03F3AE
:1008D000914001434FEA1C471FFA8CFEB3FBF7F02F
:1008E00007FB10360B0C43EA064300FB0EF69E4254
:1008F00004FA02F408D91CEB030300F1FF382FD2ED
:100900009E422DD9023863449B1B89B2B3FBF7F694
:1009100007FB163341EA034106FB0EF38B4208D96D
:100920001CEB010106F1FF3816D28B4214D9023EAE
:100930006144C91A46EA004638E72E46284605E7CC
:100940000646E3E61846F8E64B45A9D2B9EB02089D
:1009500064EB0C0E0138A3E74646EAE7204694E72D
:100960004046D1E7D0467BE7023B614432E7304660
:1009700009E76444023842E7704700BF844641EA11
:10098000000313F003036DD1403A41D351F8043B07
:1009900040F8043B51F8043B40F8043B51F8043B59
:1009A00040F8043B51F8043B40F8043B51F8043B49
:1009B00040F8043B51F8043B40F8043B51F8043B39
:1009C00040F8043B51F8043B40F8043B51F8043B29
:1009D00040F8043B51F8043B40F8043B51F8043B19
:1009E00040F8043B51F8043B40F8043B51F8043B09
:1009F00040F8043B51F8043B40F8043B51F8043BF9
:100A000040F8043B51F8043B40F8043B403ABDD267
:100A1000303211D351F8043B40F8043B51F8043B09
:100A200040F8043B51F8043B40F8043B51F8043BC8
:100A300040F8043B103AEDD20C3205D351F8043B98
:100A400040F8043B043AF9D2043208D0D2071CBF64
:100A500011F8013B00F8013B01D30B88038060468D
:100A6000704700BF082A13D38B078DD010F0030303
:100A70008AD0C3F10403D21ADB071CBF11F8013B73
:100A800000F8013B80D331F8023B20F8023B7BE7C2
:100A9000043AD9D3013A11F8013B00F8013BF9D2ED
:100AA0000B7803704B7843708B7883706046704787
:100AB0000000000000000000000000000000000036
:100AC00090F800F06DE9024520F007016FF0000C8E
:100AD00010F0070491F820F040F049804FF0000436
:100AE0006FF00700D1E9002391F840F000F1080011
:100AF00082FA4CF2A4FA8CF283FA4CF3A2FA8CF349
:100B00004BBBD1E9022382FA4CF200F10800A4FAAF
:100B10008CF283FA4CF3A2FA8CF3E3B9D1E9042303
:100B200082FA4CF200F10800A4FA8CF283FA4CF33A
:100B3000A2FA8CF37BB9D1E9062301F1200182FAF4
:100B40004CF200F10800A4FA8CF283FA4CF3A2FAFA
:100B50008CF3002BC6D0002A04BF04301A4612BA08
:100B6000B2FA82F2FDE8024500EBD2007047D1E90B
:100B7000002304F00305C4F100004FEAC50514F09A
:100B8000040F91F840F00CFA05F562EA05021CBF6B
:100B900063EA050362464FF00004A9E70000000085
:100BA00001F0FF01102A2BDB10F0070F08D010F81E
:100BB000013B013A8B422DD010F0070F42B3F6D122
:100BC000F0B441EA012141EA014122F007047FF03B
:100BD00000070023F0E80256083C85EA010586EA92
:100BE000010685FA47F5A3FA87F586FA47F6A5FACE
:100BF00087F68EB9EED1F0BC01F0FF0102F00702DA
:100C000032B110F8013B013A83EA010313B1F8D184
:100C10000020704701387047002D06BF3546033865
:100C2000073815F0010F07D1013015F4807F02BF9E
:100C3000013015F4C03F0130F0BC0138704700BFEF
:100C400070B54FF0FF0C4CF4E06C1CEA11541DBF62
:100C50001CEA135594EA0C0F95EA0C0F00F0DEF82D
:100C60002C4481EA030621EA4C5123EA4C5350EA12
:100C7000013518BF52EA033541F4801143F4801363
:100C800038D0A0FB02CE4FF00005E1FB02E506F0F4
:100C90000042E0FB03E54FF00006E1FB03569CF049
:100CA000000F18BF4EF0010EA4F1FF04B6F5007F4F
:100CB00064F5407404D25FEA4E0E6D4146EB0606C1
:100CC00042EAC62141EA55514FEAC52040EA5E504A
:100CD0004FEACE2EB4F1FD0C88BFBCF5E06F1ED8F4
:100CE000BEF1004F08BF5FEA500E50F1000041EB2B
:100CF000045170BD06F0004646EA010140EA0200D8
:100D000081EA0301B4EB5C04C2BFD4EB0C0541EAF9
:100D1000045170BD41F480114FF0000E013C00F30E
:100D2000AB8014F1360FDEBF002001F0004170BD32
:100D3000C4F10004203C35DA0C341BDC04F114044B
:100D4000C4F1200500FA05F320FA04F001FA05F2D7
:100D500040EA020001F0004221F0004110EBD370A4
:100D600021FA04F642EB06015EEA430E08BF20EAD0
:100D7000D37070BDC4F10C04C4F1200500FA04F373
:100D800020FA05F001FA04F240EA020001F0004105
:100D900010EBD37041F100015EEA430E08BF20EA78
:100DA000D37070BDC4F1200500FA05F24EEA020EC0
:100DB00020FA04F301FA05F243EA020321FA04F0EF
:100DC00001F0004121FA04F220EA020000EBD370A6
:100DD0005EEA430E08BF20EAD37070BD94F0000FA6
:100DE0000FD101F00046400041EB010111F4801FDA
:100DF00008BF013CF7D041EA060195F0000F18BF8B
:100E0000704703F00046520043EB030313F4801FC6
:100E100008BF013DF7D043EA0603704794EA0C0F80
:100E20000CEA135518BF95EA0C0F0CD050EA410696
:100E300018BF52EA4306D1D181EA030101F0004113
:100E40004FF0000070BD50EA410606BF104619463B
:100E500052EA430619D094EA0C0F02D150EA013647
:100E600013D195EA0C0F05D152EA03361CBF104688
:100E700019460AD181EA030101F0004141F0FE4127
:100E800041F470014FF0000070BD41F0FE4141F4AB
:100E9000780170BD70B54FF0FF0C4CF4E06C1CEAAB
:100EA00011541DBF1CEA135594EA0C0F95EA0C0F60
:100EB00000F0A7F8A4EB050481EA030E52EA03351B
:100EC0004FEA013100F088804FEA03334FF080553C
:100ED00045EA131343EA12634FEA022245EA111569
:100EE00045EA10654FEA00260EF000419D4208BF1A
:100EF000964244F1FD0404F5407402D25B084FEAC7
:100F00003202B61A65EB03055B084FEA32024FF472
:100F100080104FF4002CB6EB020E75EB030E22BFCF
:100F2000B61A754640EA0C005B084FEA3202B6EB8F
:100F3000020E75EB030E22BFB61A754640EA5C003E
:100F40005B084FEA3202B6EB020E75EB030E22BFCE
:100F5000B61A754640EA9C005B084FEA3202B6EBCF
:100F6000020E75EB030E22BFB61A754640EADC008E
:100F700055EA060E18D04FEA051545EA16754FEAF0
:100F800006164FEAC30343EA52734FEAC2025FEA0E
:100F90001C1CC0D111F4801F0BD141EA00014FF09D
:100FA00000004FF0004CB6E711F4801F04BF01436E
:100FB0000020B4F1FD0C88BFBCF5E06F3FF6AFAE8A
:100FC000B5EB030C04BFB6EB020C5FEA500C50F11A
:100FD000000041EB045170BD0EF0004E4EEA11319D
:100FE00014EB5C04C2BFD4EB0C0541EA045170BDA4
:100FF00041F480114FF0000E013C90E645EA060EE8
:101000008DE60CEA135594EA0C0F08BF95EA0C0F15
:101010003FF43BAF94EA0C0F0AD150EA01347FF45D
:1010200034AF95EA0C0F7FF425AF104619462CE734
:1010300095EA0C0F06D152EA03353FF4FDAE104697
:10104000194622E750EA410618BF52EA43067FF4E8
:10105000C5AE50EA41047FF40DAF52EA43057FF478
:10106000EBAE12E74FF0FF3C06E000BF4FF0010C83
:1010700002E000BF4FF0010C4DF804CD4FEA410CE7
:101080007FEA6C5C4FEA430C18BF7FEA6C5C1BD0B4
:1010900001B050EA410C0CBF52EA430C91EA030F35
:1010A00002BF90EA020F0020704710F1000F91EA92
:1010B000030F58BF994208BF90422CBFD8176FEA60
:1010C000E37040F0010070474FEA410C7FEA6C5C2E
:1010D00002D150EA013C07D14FEA430C7FEA6C5C35
:1010E000D6D152EA033CD3D05DF8040B704700BF61
:1010F0008446104662468C461946634600E000BFAF
:1011000001B5FFF7B7FF002848BF10F1000F01BD80
:101110004DF808EDFFF7F4FF0CBF012000205DF84B
:1011200008FB00BF4DF808EDFFF7EAFF34BF0120D0
:1011300000205DF808FB00BF4DF808EDFFF7E0FF69
:1011400094BF012000205DF808FB00BF4DF808EDBA
:10115000FFF7CEFF94BF012000205DF808FB00BF21
:101160004DF808EDFFF7C4FF34BF012000205DF803
:1011700008FB00BF4FEA410C7FEA6C5C02D150EAE9
:10118000013C0AD14FEA430C7FEA6C5C02D152EA7F
:10119000033C02D14FF0000070474FF00100704750
:1011A0004FEA410212F5001215D211D56FF478738F
:1011B000B3EB625212D94FEAC12343F0004343EA32
:1011C000505311F0004F23FA02F018BF404270470D
:1011D0004FF00000704750EA013005D111F0004097
:1011E00008BF6FF0004070474FF00000704700BF2D
:1011F000102800D0704708B51021074802F0EAFC1B
:101200000028F9D0054A536983F400435361044828
:101210000AF05CFA08BD00BF001C02580008025822
:101220003418019000B583B00F4BD3F8D82042F0AA
:101230000102C3F8D820D3F8D83003F0010301939A
:10124000019B002205210B2001F064F90B2001F025
:1012500097F9002205210C2001F05CF90C2001F027
:101260008FF903B05DF804FB0044025808B5084844
:10127000084B03604FF44033436002238360002334
:10128000C36002F055FB00B908BD00F071FCFBE73C
:10129000FC0900240010005202680A4B9A4200D058
:1012A000704782B0084BD3F8D42042F01002C3F844
:1012B000D420D3F8D43003F010030193019B02B083
:1012C000704700BF0010005200440258F0B5B9B09A
:1012D000002333933493359336933793354B1B6800
:1012E0000BB139B0F0BD334B01221A60C02200218E
:1012F00002A80AF037F94FF080720023CDE90223EB
:1013000002A803F0A7FD002850D12B4BD3F8D4201E
:1013100042F48052C3F8D420D3F8D43003F480537D
:101320000193019B4FF68373339302273497002672
:101330003596032536950C24379433A91F4802F0BF
:1013400039FB48F2371333933497359636953794F3
:1013500033A91B4802F02EFB4CF2037333933497EE
:1013600035963695379433A9164802F023FB4FF68D
:101370003F033393349735963695379433A9124803
:1013800002F018FB3394349735963695379433A989
:101390000E4802F00FFB2023339334973596369591
:1013A000379433A90A4802F005FB9AE700F0E0FB06
:1013B000ABE700BF640A0024004402580010025842
:1013C00000180258000C0258001402580008025875
:1013D000001C025800B589B00023019302930393C7
:1013E00004930593069307931648174A02604360D7
:1013F000012282600822C260102101614021416106
:101400004FF4C0718161C3614FF4006303624FF414
:10141000805343624FF4005383620223019302928C
:10142000062203920722049205220592069307934F
:1014300001A906F025F810B909B05DF804FB00F029
:1014400097FBF9E7680A00244041005208B5FFF70E
:101450003DFF08BD08B5012008F014F9FBE708B509
:10146000012008F00FF9FBE708B5012008F00AF9A0
:10147000FBE708B5012008F005F9FBE708B50A4AC3
:10148000536943F40043536102F5C052536943F476
:1014900080735361642008F0F5F8044A536983F4BB
:1014A00080735361F6E700BF00080258002002581D
:1014B00008B5012008F0E6F8FBE708B509F024FFBD
:1014C000012008F0DFF8F9E7034B0360034B0B60E2
:1014D00080231360704700BFB80C0024B80A0024B2
:1014E00010B5B2B03F4C0DF1AC0CA646BEE80F00F3
:1014F000ACE80F009EE807008CE8070000212BA84D
:1015000008F08BF8384B18600DF1900C04F11C0EAC
:10151000BEE80F00ACE80F009EE807008CE807006B
:10152000002124A808F079F8304B18600DF1740CF4
:1015300004F1380EBEE80F00ACE80F009EE807008B
:101540008CE8070000211DA808F067F8284B1860F8
:101550000DF1580C04F1540EBEE80F00ACE80F007A
:101560009EE807008CE80700002116A808F055F84F
:10157000204B18600DF13C0C04F1700EBEE80F001A
:10158000ACE80F009EE807008CE8070000210FA8D8
:1015900008F043F8184B18600DF1200C04F18C0E84
:1015A000BEE80F00ACE80F009EE807008CE80700DB
:1015B000002108A808F031F8104B18600DF1040E56
:1015C00004F1A80CBCE80F00AEE80F009CE807008F
:1015D0008EE80700002101A808F01FF8084B1860EA
:1015E00032B010BD60170190A00A00249C0A0024AC
:1015F000B00A0024A40A0024A80A0024AC0A00248B
:10160000B40A00242DE9F04790B000240B940C9408
:101610000D940E940F94724BD3F8E02042F4806244
:10162000C3F8E020D3F8E02002F480620092009A30
:10163000D3F8E02042F00802C3F8E020D3F8E0201D
:1016400002F008020192019AD3F8E02042F004026D
:10165000C3F8E020D3F8E02002F004020292029ADC
:10166000D3F8E02042F01002C3F8E020D3F8E020E5
:1016700002F010020392039AD3F8E02042F0020233
:10168000C3F8E020D3F8E02002F002020492049AAA
:10169000D3F8E02042F40072C3F8E020D3F8E02051
:1016A00002F400720592059AD3F8E02042F001029C
:1016B000C3F8E020D3F8E02002F001020692069A77
:1016C000D3F8E02042F04002C3F8E020D3F8E02055
:1016D00002F040020792079AD3F8E02042F48072A9
:1016E000C3F8E020D3F8E02002F480720892089A50
:1016F000D3F8E02042F02002C3F8E020D3F8E02045
:1017000002F020020992099AD3F8E02042F0800208
:10171000C3F8E020D3F8E03003F080030A930A9B7B
:10172000304E22461821304602F05BFADFF8C090B6
:1017300022464FF40041484602F053FADFF8B480E5
:1017400022464FF48071404602F04BFA10270B9767
:1017500001250C950D944FF0030ACDF838A00BA984
:10176000304602F027F908230B930C950D940223C1
:101770000E930BA9304602F01DF94FF400430B9372
:101780000C950D94CDF838A00BA9484602F012F93B
:101790004FF480530B934FF404160C960D940BA941
:1017A000114802F007F94FF480730B930C950D94D8
:1017B0000E940BA9404602F0FDF80B970C960D9580
:1017C0000BA90A4802F0F6F8224605210A2000F08B
:1017D000A1FE0A2000F0D4FE10B0BDE8F08700BFE3
:1017E00000440258000C025800180258001C02580D
:1017F000000802580020025810B58EB03422002193
:1018000001A809F0AFFE2748274B0360002343607F
:101810008360C360036113224261022282619F22BE
:10182000C2610622026240F29F42426240F25E22A0
:10183000826240F23F52C26240F26A22026380F842
:10184000343080F8353080F8363002F0BBFA10BB07
:10185000002201924FF48061029103924FF41670BE
:10186000049002230593FF23069307920891052411
:1018700009944FF040440A940B910C908DF8343049
:101880008DF835308DF8363001A9064802F014FB8A
:1018900020B90EB010BD00F06BF9D9E700F068F97F
:1018A000F7E700BF3811002400100050F0B5BBB0BE
:1018B0000446002135913691379138913991C022F3
:1018C00004A809F04FFE2268394B9A4201D03BB080
:1018D000F0BD4FF000520023CDE9042301230E9305
:1018E00009230F93022310931193052312934FF4AE
:1018F0004063139304A803F0ADFA002855D12D4B93
:10190000D3F8E42042F00802C3F8E420D3F8E4203E
:1019100002F008020092009AD3F8E02042F48062BC
:10192000C3F8E020D3F8E02002F480620192019A2B
:10193000D3F8E02042F40072C3F8E020D3F8E020AE
:1019400002F400720292029AD3F8E02042F480720C
:10195000C3F8E020D3F8E03003F480730393039BD3
:10196000FF233593022736970026379603253895AF
:101970000E24399435A9104802F01CF84FF6FF7375
:101980003593369737963895399435A90B4802F038
:1019900011F84FF47043359336973796389539944C
:1019A00035A9074802F006F891E700F0E1F8A6E74C
:1019B0000010005000440258002802580024025829
:1019C0000020025870B483B040F25724A4EB020CFC
:1019D000201ACC1AA4B204F2FF34A4B201EB8C2575
:1019E00005F1C0456D001C4AD2F8D46046F01006DF
:1019F000C2F8D460D2F8D42002F010020192019A09
:101A0000164A166826F0010616604FF44036166036
:101A1000022656631464D563A0EB0C0001305B1AF8
:101A2000013340EA03435364069B9363136843F016
:101A3000010313600023094A526812F0020F03D118
:101A40000133B3F5001FF6D3044A936843F0020351
:101A5000936003B070BC70470044025800100052FD
:101A600000B583B0009040F2FF3340F257220021CE
:101A70000846FFF7A7FF03B05DF804FB08B5012295
:101A80001021024802F0ADF808BD00BF000C02585A
:101A900010B50B4C00231A461946204602F06BFA8B
:101AA00000234FF416724FF48061204602F038FA9A
:101AB000FFF7E4FF4FF0FF30FFF7D2FF10BD00BF8C
:101AC0003811002430B585B00024009401940294AC
:101AD000039400F063FD01258DF800508DF801405E
:101AE0004FF01043019316238DF808308DF809400C
:101AF0008DF80A5003238DF80B308DF80C408DF8CB
:101B00000D408DF80E508DF80F50684600F064FDC2
:101B10008DF801504FF04043019318238DF80830A1
:101B20008DF80A408DF80F40684600F055FD0223FD
:101B30008DF801304FF01053019312238DF80830C7
:101B40008DF80A508DF80F50684600F045FD0420CE
:101B500000F032FD05B030BD08B50268034B9A4273
:101B600000D008BD00F098FCFBE700BF001000406B
:101B700072B6FEE700B59FB04C2200210BA809F019
:101B8000F1FC2022002103A809F0ECFC022002F065
:101B90001DFA00230093394BDA6A22F00102DA625F
:101BA000DB6A03F001030093354B9A6942F440422B
:101BB0009A619B6903F440430093009B304B9B69FF
:101BC00013F4005FFAD02F4BD3F8F42042F0020256
:101BD000C3F8F420D3F8F43003F002030193019B1F
:101BE00000230293264B9A6942F440429A619B6912
:101BF00003F440430293214BDA6A42F00102DA62B5
:101C0000DB6A03F001030293029B1D4B9B6913F4F3
:101C1000005FFAD001230B934FF480330C9302231F
:101C20001493159305221692C0221792189304223A
:101C300019921A9308231B9300231C931D930BA83E
:101C400002F0EEF9B0B93F2303930323049300237A
:101C50000593082306934023079308934FF480626B
:101C600009920A93042103A802F02EFE20B91FB0A6
:101C70005DF804FBFFF77CFFFFF77AFF00040058D4
:101C8000004802580044025808B5FFF71BFF3C4BC0
:101C90005B6913F4003F13D1BFF34F8FBFF36F8F16
:101CA000374B0022C3F85022BFF34F8FBFF36F8F23
:101CB0005A6942F400325A61BFF34F8FBFF36F8FFE
:101CC0002F4B5B6913F4803F27D12D4B0022C3F8C3
:101CD0008420BFF34F8FD3F88040C4F34E3000E030
:101CE0001846C4F3C90243F6E07303EA401343EA1B
:101CF00082732349C1F860321346013A002BF2D1B6
:101D0000431E0028ECD1BFF34F8F4B6943F480335F
:101D10004B61BFF34F8FBFF36F8F00F08FFBFFF767
:101D200029FFFFF76FFCFFF77DFA00F071FAFFF76C
:101D300051FBFFF79BFAFFF75FFD00F027F807F074
:101D4000AFF900F0D5F809F045F90E4A536943F0B0
:101D500010035361FFF79CFE4FF47F60FFF780FE96
:101D600009F038FBFFF7BCFB07F03FFC064A53695C
:101D700083F400435361642000F0A0FBF6E700BF4A
:101D800000ED00E0000C02580008025808B50748B2
:101D9000074B03600023436083604FF48042C260BE
:101DA00003610623436105F0F4F908BDE011002446
:101DB000007000522DE9F043BBB00446002135917C
:101DC0003691379138913991C02204A809F0CAFBA5
:101DD0002268354B9A4202D03BB0BDE8F0834FF405
:101DE00080320023CDE9042304A803F033F800284F
:101DF00057D12E4BD3F8D42042F48032C3F8D420EC
:101E0000D3F8D42002F480320192019AD3F8E02072
:101E100042F00402C3F8E020D3F8E02002F004020C
:101E20000292029AD3F8E02042F00802C3F8E020C0
:101E3000D3F8E03003F008030393039B4FF470637F
:101E40003593022636964FF00108CDF8DC80032545
:101E500038950C243994DFF85C9035A9484601F098
:101E6000A9FD4FF480533593369600273797389560
:101E7000399435A9484601F09DFD042335933696E3
:101E8000CDF8DC803895399435A9094801F092FDE8
:101E90003A460521312000F03DFB312000F070FB77
:101EA0009AE7FFF765FEA4E700700052004402586D
:101EB000000C02580008025810B584B001290ED059
:101EC00002290ED000900194029203934FF48052A5
:101ED0006946064805F0FCFA28B904B010BD102484
:101EE000F0E70824EEE74FF0FF30F6E7680A002439
:101EF00008B50023012211461046FFF7DDFF01203F
:101F000000F0DCFA0023012211460220FFF7D4FF83
:101F10000023082201210320FFF7CEFF4FF40C73AA
:101F2000012211460420FFF7C7FF40F284610248F6
:101F300005F0EFFA08BD00BF680A002400B583B0C1
:101F40000A4BD3F8F42042F00202C3F8F420D3F88D
:101F5000F43003F002030193019B00220F216FF084
:101F6000010000F0D7FA03B05DF804FB004402580A
:101F70000F2801D90120704710B58AB0044600220D
:101F80000146362000F0C6FA362000F0F9FA1A4B66
:101F90001C601A4BD3F8E82042F01002C3F8E82086
:101FA000D3F8E83003F010030093009B01A902A8C6
:101FB00002F01AFE079BBBB902F0F2FD034610487F
:101FC000A0FB03239B0C013B0E480F4A026040F22A
:101FD000E732C260436000230361836005F048FC80
:101FE00030B101200AB010BD02F0DAFD4300E6E78F
:101FF000044805F0A9FAF5E70C0000240044025853
:1020000083DE1B435C12002400100040FEE7FEE765
:10201000FEE7FEE7FEE7704708B5102001F0E7FD98
:1020200008BD000008B5024801F0E6F808BD00BF91
:10203000AC12002408B5024801F0DEF808BD00BF6C
:102040002413002408B54FF4805001F0D0FD08BDE2
:1020500008B5024805F0FEF808BD00BFE0110024F5
:1020600008B5024805F084FC08BD00BF9C1300249D
:1020700008B5024805F0B4FA08BD00BF5C120024A0
:102080000120704708B509F043FA162303604FF0AA
:10209000FF3008BD08B54FF0FF31FFF7F3FFFEE753
:1020A00070B50C461646002506E0AFF300802146C9
:1020B00001F8010B01350C46B542F6DB304670BD28
:1020C00070B50C461646002504E014F8010B00F02C
:1020D0007BF90135B542F8DB304670BD4FF0FF307B
:1020E00070474FF400534B60002070470120704749
:1020F0000020704710B503460C4A0D490D48006892
:1021000040B10C4800680344521A934206D8094A69
:10211000136010BD0748084C0460F2E709F0F8F9B5
:102120000C2303604FF0FF30F3E700BF00000824EA
:1021300000F00000A8120024E8170124294AD2F870
:10214000883043F47003C2F88830274B1B6803F0D3
:102150000F03062B06D8244A136823F00F0343F01D
:1021600007031360214B1A6842F001021A60002233
:102170001A6119681E4A0A401A601B4B1B6813F04B
:10218000080F06D0184A136823F00F0343F0070323
:102190001360164B00229A61DA611A62154999623E
:1021A0001549D962154919635A639963DA63196449
:1021B0005A64196821F4802119601A66104B1A6854
:1021C000104B1340B3F1005F03D20F4B0122C3F851
:1021D00008210E4B43F2D2021A60024B4FF010421C
:1021E0009A60704700ED00E0002000520044025861
:1021F0007FEDF6EA000202020000FF018002010109
:102200000010005C0000FFFF008000510040005201
:1022100008B51748174B03604FF4E13343600023C0
:102220008360C36003610C2242618361C361036206
:102230004362836206F0F9F970B900210C4806F098
:102240006FFA60B900210A4806F08FFA50B90848C1
:1022500006F047FA48B908BDFFF78AFCEDE7FFF73B
:1022600087FCEFE7FFF784FCF1E7FFF781FCF2E77B
:102270009C130024004C0040F0B5BBB00446002184
:1022800035913691379138913991C02204A809F0DF
:1022900069F92268444B9A4201D03BB0F0BD02225A
:1022A0000023CDE9042304A802F0D4FD002871D155
:1022B0003E4BD3F8E82042F40022C3F8E820D3F8DC
:1022C000E82002F400220192019AD3F8E02042F4BF
:1022D0008072C3F8E020D3F8E02002F4807202920A
:1022E000029AD3F8E02042F00102C3F8E020D3F8CC
:1022F000E03003F001030393039B4FF40073359325
:10230000022736970025379538950826399635A93E
:10231000274801F04FFB01233593369737953895C1
:10232000399635A9234801F045FB2348234B036028
:102330003F2343608560C5604FF48063036145615E
:102340008561C5610562456200F0ACFA28BB1A4B95
:10235000C4F880309C631A481A4B036040234360E2
:1023600083600023C3604FF4806202614361836134
:10237000C3610362436200F095FA88B9104BE367CA
:102380009C6300220521342000F0C4F8342000F0C2
:10239000F7F882E7FFF7ECFB8AE7FFF7E9FBD6E700
:1023A000FFF7E6FBEAE700BF004C0040004402589C
:1023B0000020025800000258AC1200241000024015
:1023C000241300242800024000B583B00190FF23AD
:1023D000012201A9034806F05BF8019803B05DF8FB
:1023E00004FB00BF9C130024DFF834D0FFF7A6FEE7
:1023F0000C480D490D4A002302E0D458C450043360
:10240000C4188C42F9D30A4A0A4C002301E0136035
:102410000432A242FBD309F081F8FFF735FC704784
:102420000000082400000024C8090024541E019064
:10243000E0090024E8170124FEE7000010B503209E
:1024400000F056F802F046F90F498B69C3F30323F5
:102450000E4AD35C03F01F03D8408B6903F00F03CF
:10246000D35C03F01F0320FA03F3094A1360094BFE
:1024700018600F20FFF77CFD10B10124204610BD2D
:102480000446FFF75BFDF9E70044025898180190F5
:102490000400002400000024034B1B78034A116849
:1024A0000B441360704700BF080000243014002460
:1024B000014B1868704700BF3014002438B504463B
:1024C000FFF7F6FF0546B4F1FF3F02D0044B1B783F
:1024D0001C44FFF7EDFF401BA042FAD338BD00BFFC
:1024E00008000024014B1868000C70470010005CC5
:1024F0000649CB6823F4E0631B041B0C000200F4C4
:10250000E0600343024A1A43CA60704700ED00E0EE
:102510000000FA0500B5174BDB68C3F30223C3F1D3
:10252000070CBCF1040F28BF4FF0040C03F1040E9C
:10253000BEF1060F14D9033B4FF0FF3E0EFA0CFC20
:1025400021EA0C0199400EFA03F322EA030319432E
:10255000002807DB0901C9B2074B19545DF804FBD9
:102560000023E9E700F00F000901C9B2034B195439
:10257000F4E700BF00ED00E000E400E014ED00E04F
:10258000002807DB00F01F02400901239340024AA4
:1025900042F82030704700BF00E100E0BFF35F8FDA
:1025A000044B5A6A22F480325A620022C3F8942003
:1025B000704700BF00ED00E040F00100054BC3F89C
:1025C00094005A6A42F480325A62BFF34F8FBFF3CD
:1025D0006F8F704700ED00E04378144AC2F89830DE
:1025E000D2F8A03023F00103C2F8A0304368C2F84B
:1025F0009C30017BC37A1B0643EA0173817A43EA6C
:10260000C143417B43EA8143817B43EA4143C17B30
:1026100043EA0143417A43EA0123017A43EA410351
:1026200001780B43C2F8A030704700BF00ED00E016
:1026300003682749274A934218BF8B422FD018328C
:1026400093422CD01832934229D01832934226D08C
:102650001832934223D01832934220D0183293423A
:102660001DD002F55672934219D01832934216D0FB
:102670001832934213D01832934210D0183293423A
:102680000DD0183293420AD01832934207D0183234
:10269000934204D023F0FF038365806D704710B42C
:1026A000D9B210390C4AA2FB0142C2F302120B4C00
:1026B000A25CC2655F2907D9094A1A4004328265C3
:1026C000806D5DF8044B7047054A1A408265F7E754
:1026D0001000024028000240ABAAAAAAA818019044
:1026E00000FCFFFF83699BB9836A012B0AD0022B90
:1026F00002D00BB100207047C36A13F0807F2AD14B
:1027000000207047C36AB3F1C07F26D00020704715
:10271000B3F5005F0AD0836A022B26D9032B26D19A
:10272000C36A13F0807F24D100207047836A032B93
:1027300003D8DFE803F01404140A00207047C36ACA
:1027400013F0807F0DD100207047C36AB3F1C07FC2
:1027500009D00020704701207047012070470120F8
:10276000704701207047012070470120704700200A
:10277000704701207047000003682249224A9342B3
:1027800018BF8B4228D01432934225D01432934282
:1027900022D0143293421FD0143293421CD01432F0
:1027A000934219D01432934216D0DAB2103A174934
:1027B000A1FB0212120916491944A8291FD9154B69
:1027C00013449B000366144B436602F01F0201236F
:1027D00003FA02F282667047DBB2083B0F4AA2FBA3
:1027E00003230F4A02EB1312920002660D4A42665F
:1027F000C3F30413012202FA03F38366704708321D
:10280000DDE700BF085402581C540258ABAAAAAA1C
:10281000F0FBFDBF0082001080080240CDCCCCCC84
:10282000009600168058025801794A1E072A2CD8B3
:1028300030B40368154D164CA34218BFAB4218D0F4
:102840001434A34215D01434A34212D01434A3423A
:102850000FD01434A3420CD01434A34209D0143442
:10286000A34206D00B4B0B449B00C3660A4B036785
:1028700005E00A4B0B449B00C366094B0367012329
:1028800003FA02F2426730BC70477047085402589E
:102890001C5402583F820010400902403F96001627
:1028A0004059025870B50446FFF702FE002C00F0B4
:1028B000B681054623685349534A934218BF8B4259
:1028C0000CBF0122002250D030318B424DD0183144
:1028D0008B424AD018318B4247D018318B4244D0BA
:1028E00018318B4241D018318B423ED001F55671E0
:1028F0008B423AD018318B4237D018318B4234D0CA
:1029000018318B4231D018318B422ED018318B4286
:102910002BD018318B4228D018318B4225D03B491F
:102920003B4A934218BF8B4200F03181394A9342AF
:1029300000F02D811432934200F029811432934229
:1029400000F025811432934200F021811432934229
:1029500000F01D811432934200F019814023636519
:10296000032384F8353001204AE0022184F8351031
:10297000002184F834107ABB274A93422CD01832B5
:10298000934229D01832934226D01832934223D052
:102990001832934220D0183293421DD002F556725D
:1029A000934219D01832934216D01832934213D062
:1029B0001832934210D0183293420DD018329342FD
:1029C0000AD01832934207D01832934204D01A68C2
:1029D00022F001021A6003E01A6822F001021A6074
:1029E00023681A6812F0010F18D0FFF761FD431B2E
:1029F000052BF5D920236365032384F835300120A6
:102A000070BD00BF10000240280002400854025868
:102A10001C54025830540258400002401A68814841
:102A20001040A168E2680A4321690A4361690A43C8
:102A3000A1690A43E1690A43216A0A430243616AC0
:102A4000042900F099807849086878490140B1F17B
:102A5000005F11D36168A1F12905A1F13F000328AE
:102A600088BF052D06D9A1F14700012802D94F39A9
:102A7000032901D842F480121A602668756925F08E
:102A80000705636A1D43042B08D1A36A1D43E36A4B
:102A900023B12046FFF726FE002872D1756120463B
:102AA000FFF7C6FDE36D03F01F023F2393408360F1
:102AB00023685F495F4A934218BF8B4242D0183265
:102AC00093423FD0183293423CD01832934239D0CF
:102AD0001832934236D01832934233D01832934290
:102AE00030D002F5567293422CD01832934229D03E
:102AF0001832934226D01832934223D01832934290
:102B000020D0183293421DD0183293421AD0183276
:102B1000934217D0484A934214D01432934211D0B2
:102B2000143293420ED0143293420BD0143293429B
:102B300008D01432934205D01432934202D014329A
:102B4000934213D12046FFF717FEA368802B59D07C
:102B5000236E22791A60636EA26E5A606368013B2D
:102B6000072B52D90023E366236763670020606563
:102B7000012384F8353043E7E16A206B01430A43BF
:102B800061E740236365012084F8350038E70222BD
:102B900084F83520002284F834201A68274911402F
:102BA000A268402A2CD0802A27D00022E06842EA7E
:102BB000D002206942EAD002606942EAD002A069EC
:102BC00042EAD002E06942EAD002206A42EA1012E8
:102BD0000A431A6022681A4B13441A4AA2FB0323C1
:102BE0001B099B00E3652046FFF722FDE26D02F022
:102BF0001F0101228A4042605AE74FF48042D5E724
:102C00001022D3E700236360A2E72046FFF70CFE03
:102C1000E36E00221A60236F626F5A60A6E70120FC
:102C2000EEE600BF3F8010FE0010005C0000FFFFDA
:102C30001000024028000240085402580F00FEFF16
:102C4000F8ABFDA7CDCCCCCC70B50446FFF730FC7B
:102C5000002C00F09181054694F83530DBB2022B50
:102C600006D080236365002384F83430012070BDD2
:102C700023688C498C4A934218BF8B4230D018325B
:102C800093422DD0183293422AD01832934227D043
:102C90001832934224D01832934221D018329342F2
:102CA0001ED002F5567293421AD01832934217D0B2
:102CB0001832934214D01832934211D018329342F2
:102CC0000ED0183293420BD01832934208D01832EB
:102CD000934205D01A6822F00E021A60266809E0B5
:102CE0001A6822F01E021A602268536923F08003DA
:102CF0005361266823686B496B4A934218BF8B4225
:102D000042D0183293423FD0183293423CD018320E
:102D1000934239D01832934236D01832934233D08E
:102D20001832934230D002F5567293422CD01832AA
:102D3000934229D01832934226D01832934223D09E
:102D40001832934220D0183293421DD01832934249
:102D50001AD01832934217D0544A934214D01432E6
:102D6000934211D0143293420ED0143293420BD0BE
:102D70001432934208D01432934205D01432934255
:102D800002D01432934204D1226E136823F480736C
:102D9000136023684349444A934218BF8B422FD0A3
:102DA000183293422CD01832934229D018329342D1
:102DB00026D01832934223D01832934220D01832B2
:102DC00093421DD002F55672934219D018329342A5
:102DD00016D01832934213D01832934210D01832C2
:102DE00093420DD0183293420AD01832934207D042
:102DF0001832934204D01A6822F001021A6003E0EC
:102E00001A6822F001021A60336813F0010F0ED025
:102E1000FFF74EFB431B052BF6D9202363650323E5
:102E200084F83530002384F8343001201FE723680C
:102E30001C491D4A934218BF8B4239D01832934225
:102E400036D01832934233D01832934230D01832F1
:102E500093422DD0183293422AD01832934227D071
:102E600002F55672934223D01832934220D0183282
:102E700093421DD0183293421AD01832934217D081
:102E80001832934214D01832934211D01832934220
:102E90000ED0A16DE36D03F01F02012393404B6040
:102EA0000DE000BF10000240280002400854025804
:102EB000A16DE36D03F01F023F2393408B602368F5
:102EC0002E492F4A934218BF8B4242D01832934268
:102ED0003FD0183293423CD01832934239D0183246
:102EE000934236D01832934233D01832934230D0C6
:102EF00002F5567293422CD01832934229D01832E0
:102F0000934226D01832934223D01832934220D0D5
:102F1000183293421DD0183293421AD0183293427D
:102F200017D0184A934214D01432934211D014325D
:102F300093420ED0143293420BD01432934208D0F5
:102F40001432934205D01432934202D01432934289
:102F50000BD1636EA26E5A60E36E33B11A6822F42D
:102F600080721A60236F626F5A60012384F83530D3
:102F7000002084F834007AE6012078E61000024050
:102F80002800024008540258002800F0298108B5A2
:102F9000024690F83530DBB2022B03D08023436524
:102FA000012008BD0368904890498B4218BF8342B6
:102FB0000CBF0121002166D03030834263D018302D
:102FC000834260D0183083425DD0183083425AD09B
:102FD0001830834257D01830834254D000F55670D1
:102FE000834250D0183083424DD0183083424AD0AB
:102FF0001830834247D01830834244D0183083427F
:1030000041D0183083423ED0183083423BD01968FB
:1030100021F00E0119601368A0F5956073498B4289
:1030200018BF83426AD072498B4267D018318B42F5
:1030300064D018318B4261D018318B425ED0183188
:103040008B425BD018318B4258D001F556718B42C0
:1030500054D018318B4251D018318B424ED0183198
:103060008B424BD018318B4248D018318B4245D01F
:1030700018318B4242D018318B423FD0196821F071
:10308000010119603EE0042082F8350081BB584AF6
:1030900093422DD0183293422AD01832934227D02F
:1030A0001832934224D01832934221D018329342DE
:1030B0001ED002F5567293421AD01832934217D09E
:1030C0001832934214D01832934211D018329342DE
:1030D0000ED0183293420BD01832934208D01832D7
:1030E000934205D01A6822F001021A60002058E7C6
:1030F0001A6822F001021A60002052E7196821F0D4
:10310000010119601368384838498B4218BF83425F
:1031100042D018318B423FD018318B423CD018310D
:103120008B4239D018318B4236D018318B4233D094
:1031300018318B4230D001F556718B422CD01831AA
:103140008B4229D018318B4226D018318B4223D0A4
:1031500018318B4220D018318B421DD018318B4250
:103160001AD018318B4217D022498B4214D0143117
:103170008B4211D014318B420ED014318B420BD0C4
:1031800014318B4208D014318B4205D014318B425C
:1031900002D014318B4217D1116E0B6823F4807367
:1031A0000B60906DD36D03F01F0101238B404360D2
:1031B000536E916E5960D36E33B1196821F48071EA
:1031C0001960136F516F5960012382F83530002365
:1031D00082F83430136D2BB1104698470020E0E69A
:1031E000012070470020DCE6100002402800024069
:1031F0004000024008540258F0B583B00446002352
:1032000001937D4B1D687D4BA3FB0535AD0A876D92
:103210003E68D7F800C0036879497A48834218BFEE
:103220008B420CBF0120002061D0774A93425ED0D0
:10323000183293425BD01832934258D018329342DE
:1032400055D01832934252D0183293424FD002F5E3
:10325000567293424BD01832934248D01832934260
:1032600045D01832934242D0183293423FD01832A0
:1032700093423CD01832934239D01832934236D020
:103280006249634A934218BF8B4212D0614A93420B
:103290000FD0143293420CD01432934209D014321E
:1032A000934206D01432934203D01432934240F03A
:1032B00061821A68E16D01F01F010420884010EA64
:1032C0000C0F00F0A78212F0040F00F0A3827860C8
:1032D00012F4004F00F05A8212F4803F40F0508206
:1032E000A36C002B00F046822046984742E2E26D34
:1032F00002F01F0108228A40324241D070BB424A8C
:1033000093422BD01832934228D01832934225D0C2
:103310001832934222D0183293421FD0183293426F
:103320001CD002F55672934218D01832934215D031
:103330001832934212D0183293420FD0183293426F
:103340000CD01832934209D01832934206D018326A
:10335000934203D01A68C2F3C00202E01A68C2F3B3
:1033600080026AB11A6822F004021A60E36D03F069
:103370001F0208239340BB60636D43F00103636544
:10338000E26D02F01F0226FA02F313F0010F47D09C
:1033900023681B481B498B4218BF83423CD018311D
:1033A0008B4239D018318B4236D018318B4233D012
:1033B00018318B4230D018318B422DD018318B42CE
:1033C0002AD001F556718B4226D018318B4223D07A
:1033D00018318B4220D018318B421DD018318B42CE
:1033E0001AD018318B4217D018318B4214D01831B3
:1033F0008B4211D01B6813E000000024B5814E1BE6
:1034000010000240280002404000024008540258C8
:103410001C540258305402585B6913F0800F3BD1A2
:10342000E36D03F01F03042202FA03F3334240D09A
:103430002268964896498A4218BF824235D0183190
:103440008A4232D018318A422FD018318A422CD089
:1034500018318A4229D018318A4226D018318A423E
:1034600023D001F556718A421FD018318A421CD0F0
:1034700018318A4219D018318A4216D018318A423E
:1034800013D018318A4210D018318A420DD0183129
:103490008A420AD013680CE0012303FA02F2BA60F0
:1034A000636D43F002036365BAE7126812F0020F1E
:1034B0003DD1E36D03F01F03102202FA03F3334200
:1034C0005FD02268714872498A4218BF824234D064
:1034D00018318A4231D018318A422ED018318A42AE
:1034E0002BD018318A4228D018318A4225D0183181
:1034F0008A4222D001F556718A421ED018318A4282
:103500001BD018318A4218D018318A4215D0183190
:103510008A4212D018318A420FD018318A420CD018
:1035200018318A4209D01268C2F3800208E0BB60F9
:10353000636D43F004036365BBE71268C2F3C00226
:10354000FAB1BB6023681A6812F4802F0DD01B6893
:1035500013F4002F04D1236C9BB12046984710E050
:10356000A36C73B1204698470BE01A6812F4807F71
:1035700003D11A6822F008021A60236C0BB12046AE
:103580009847E36D03F01F03202202FA03F333424E
:1035900000F0928022683D483D498A4218BF82422D
:1035A0002ED018318A422BD018318A4228D01831B7
:1035B0008A4225D018318A4222D018318A421FD03F
:1035C00018318A421CD001F556718A4218D0183140
:1035D0008A4215D018318A4212D018318A420FD04F
:1035E00018318A420CD018318A4209D018318A42E7
:1035F00006D018318A4203D01268C2F3400202E0BA
:103600001268C2F30012002A56D0BB6094F835301D
:10361000DBB2042B0ED023681A6812F4802F39D045
:103620001B6813F4002F2CD1636C002B44D0204670
:10363000984741E02268136823F01603136022685C
:10364000536923F080035361236CB3B1226813687C
:1036500023F008031360E36D03F01F023F23934040
:10366000BB60012384F83530002384F83430236DA7
:10367000002B7FD0204698477CE0A36C002BE5D13F
:10368000E9E7E36BC3B12046984715E0100002401C
:10369000280002401A6812F4807F09D11A6822F0CB
:1036A00010021A60012384F83530002384F8343086
:1036B000E36B0BB120469847636D002B5AD0636DC6
:1036C00013F0010F52D0042384F835302368964953
:1036D000964A934218BF8B422FD0183293422CD077
:1036E0001832934229D01832934226D0183293428E
:1036F00023D01832934220D0183293421DD002F5C5
:103700005672934219D01832934216D0183293420F
:1037100013D01832934210D0183293420DD0183281
:1037200093420AD01832934207D01832934204D001
:103730001A6822F001021A6003E01A6822F00102FE
:103740001A60019B01330193AB4204D823681B68C4
:1037500013F0010FF5D123681B6813F0010F0BD094
:10376000032384F83530002384F83430E36C0BB144
:103770002046984703B0F0BD012384F83530F2E7C6
:10378000236C002BF6D020469847F3E712F0200F69
:103790003AD123686449654A934218BF8B422FD0BF
:1037A000183293422CD01832934229D018329342C7
:1037B00026D01832934223D01832934220D01832A8
:1037C00093421DD002F55672934219D0183293429B
:1037D00016D01832934213D01832934210D01832B8
:1037E00093420DD0183293420AD01832934207D038
:1037F0001832934204D01A6822F004021A6003E0DF
:103800001A6822F008021A60236C002BB2D02046FE
:103810009847AFE70220884010EA0C0F60D012F002
:10382000020F5DD0786012F4004F0ED012F4803F8A
:1038300005D1636C002B9DD0204698479AE7E36B37
:10384000002B97D02046984794E712F0200F40D1E4
:1038500023683549354A934218BF8B422FD018321E
:1038600093422CD01832934229D01832934226D05A
:103870001832934223D01832934220D01832934208
:103880001DD002F55672934219D01832934216D0C9
:103890001832934213D01832934210D01832934208
:1038A0000DD0183293420AD01832934207D0183202
:1038B000934204D01A6822F00A021A6003E01A68E0
:1038C00022F014021A60012384F83530002384F8B2
:1038D0003430E36B002B3FF44DAF2046984749E767
:1038E000082000FA01F111EA0C0F3FF443AF12F087
:1038F000080F3FF43FAF1A6822F00E021A60E36D22
:1039000003F01F03012202FA03F37B60626584F86F
:103910003520002384F83430E36C002B3FF42AAFC9
:103920002046984726E700BF1000024028000240CA
:10393000002837D010B5044690F86130002B2CD009
:10394000022384F8613021680A68174B13406268CB
:10395000E069024313430B6021684A6B134B134029
:10396000A268A069024313434B632268116C104B99
:103970000B40E1680B43136421684B6B23F4401345
:1039800020696269520542EA005213434B630020EA
:103990006066012384F8613010BD80F86030FDF767
:1039A0007BFCCDE701207047BFFFF8FFF8FEFFFF6B
:1039B0000000FFFFF0B583B000236BE085685E0078
:1039C0000324B44025EA0405CC68B4402C43846049
:1039D000446824EA0C0C4C68C4F300149C4044EA8C
:1039E0000C04446068E0DD08083550F8256003F0F9
:1039F00007044FEA840C0F2404FA0CF426EA040EA0
:103A00000C6904FA0CF444EA0E0440F825406BE01B
:103A1000092400E0002404FA0EF42C430CF1020CFB
:103A2000694D45F82C404FF0B0442568D44325EA51
:103A300002064F6817F4801F01D042EA05064FF0D6
:103A4000B0452E606D6804EA05064F6817F4001F44
:103A500001D042EA05064FF0B0456E60D5F88450BB
:103A600004EA05064F6817F4003F01D042EA050654
:103A70004FF0B045C5F88460D5F880502C404E68B2
:103A800016F4803F01D042EA05044FF0B042C2F87C
:103A9000804001330A6832FA03F400F092804FF05C
:103AA000010C0CFA03FC1CEA0202F2D04C6804F090
:103AB0000304013C012C81D94C6804F00304032C5D
:103AC0000CD0C4685D004FF0030C0CFA05FC24EA2E
:103AD0000C0C8C68AC4044EA0C04C4604C6804F0E4
:103AE0000304022C3FF47FAF04684FEA430E4FF00B
:103AF000030C0CFA0EFC24EA0C0C4C6804F00304D2
:103B000004FA0EF444EA0C0404604C6814F4403FD8
:103B1000BFD02E4CD4F8F45045F00205C4F8F45050
:103B2000D4F8F44004F002040194019C4FEA930C91
:103B30000CF10205244C54F8255003F003044FEA1D
:103B4000840E0F2404FA0EF425EA0405204CA0424A
:103B50003FF460AF04F58064A04222D004F5806495
:103B6000A04220D004F58064A0421ED004F58064F9
:103B7000A0421CD004F58064A0421AD004F58064F1
:103B8000A04218D004F58064A04216D004F58064E9
:103B9000A04214D004F58064A0423FF439AF0A2457
:103BA00039E7012437E7022435E7032433E7042407
:103BB00031E705242FE706242DE707242BE7082407
:103BC00029E703B0F0BD00BF0004005800440258CC
:103BD000000002580369194201D0012070470020FB
:103BE00070470AB18161704709048161704708B567
:103BF0004FF0B043D3F88830034200D108BD4FF0F6
:103C0000B043C3F88800FDF7F3FAF7E7F0B54D6865
:103C10000468E368C3F30B431D444FEAC21C04EB82
:103C2000C214D4F8883003F47043C4F888300B68A9
:103C30000468E668C6F30B463344013304EBC21450
:103C400043EA0543C4F88830CD680468E368C3F3E9
:103C50000A031D4404EBC21EDEF88C3003F47043EB
:103C6000CEF88C308B680468E668C6F30A0E73449D
:103C7000013304EBC21443EA0543C4F88C300368F3
:103C800003EBC213D3F8944024F00704C3F8944024
:103C9000036803EBC2130C69C3F8944091F83170C8
:103CA00091F832608D69046804EBC21404F1840E4B
:103CB000D4F89C300024CEF8184091F8303043EA14
:103CC000072343EA0643066806EBC21E43EA056380
:103CD000CEF89C300EF1840E036803EBC213D3F8C8
:103CE000985025F0FF05C3F89850036803EBC21302
:103CF0004D69C3F89850036803EBC213D3F8A06072
:103D00002E4D3540C3F8A0500D6A036803EBC21373
:103D1000CE693543C3F8A050036803EBC213D3F850
:103D2000AC50C3F8AC40036803EBC2124B6AC2F854
:103D3000AC300B696BB1012B39D0022B18BF042BAF
:103D400037D0032B37D0072B01D0012502E0022505
:103D500000E0042502686244D2F8B04004F0E02498
:103D6000C2F8B0408A6A05FB02F44B680A689B1AE5
:103D700005FB03F307330268624443EA0443C2F8D5
:103D8000B03003686344D3F8B4400D4A2240C3F80E
:103D9000B42003686344CA6AC3F8B42003689C442F
:103DA000DCF8843043F00103CCF88430F0BD032507
:103DB000D0E70225CEE70225CCE700BFF8F8FFFFE9
:103DC00000F8FFFF002872D038B5044690F8A13003
:103DD000002B67D0022384F8A1302268936923F076
:103DE0007043936121688A696368A0680343E0684F
:103DF00003432069034313438B6121688A682D4B79
:103E00001A408A6020688268A169656941EA0541B3
:103E10000A4382602168CA681A40CA602068C26882
:103E2000216AE56941EA05410A43C26021680A69DD
:103E30001A400A6120680269A16A656A41EA05417F
:103E40000A43026121684A6913404B61E06A2168B4
:103E50004B69226B42EA004213434B6194F83500F0
:103E600094F836301B042168CA6A02F07F42CA62A5
:103E70002168CA6A43EA002394F8340003431343D9
:103E8000CB622268536B43F0060353632268936945
:103E900043F0010393610020C4F8A400012384F8D7
:103EA000A13038BD80F8A030FDF700FD92E7012079
:103EB000704700BF00F800F0F8B590F8A030012B73
:103EC0002CD004460D461646012780F8A070022328
:103ED00080F8A1304FF0340C0CFB020C0CF1380CC4
:103EE0008E46BEE80F00ACE80F00BEE80F00ACE85D
:103EF0000F00BEE80F00ACE80F00DEF80030CCF891
:103F00000030324629462046FFF780FE23685F6274
:103F100084F8A170002084F8A000F8BD0220FCE71E
:103F200070B515461A4690F8A030012B21D00446F2
:103F3000012680F8A060022380F8A130342002FB23
:103F400000F000F1380C2044836B0B44C363036C16
:103F50002B4443640166456604EB0C012046FFF7E1
:103F600055FE23685E6284F8A160002084F8A000FA
:103F700070BD0220FCE7B0B5044690F8A00001280F
:103F800022D017461A46012584F8A050022384F84F
:103F9000A130342002FB00F000F1380C2044816392
:103FA000036E1944C1630764436E3B44436404EBEE
:103FB0000C012046FFF72AFE23685D6284F8A150B9
:103FC000002084F8A000B0BD0220FCE7134BDB68A2
:103FD00013F0040F07D1114BDB6803F00703834292
:103FE0001AD00120704710B50C4AD36823F007039C
:103FF0001843D060FEF75CFA0446084B5B6813F484
:10400000005F07D1FEF754FA001BB0F57A7FF4D9B0
:10401000012000E0002010BD002070470048025839
:10402000002800F0398338B50446036813F0010F07
:1040300025D0944A136903F03803926A102B15D0E7
:10404000182B0FD06368B3F5803F3FD0002B53D1BE
:104050008C4B1A6822F480321A601A6822F480228B
:104060001A6038E002F00302022AEBD1854B1B688C
:1040700013F4003F03D06368002B00F00F83236824
:1040800013F0020F00F0A1807E4A1369926A13F0C8
:1040900038035AD0182B55D0E368002B00F0DE808F
:1040A00078490A6822F0190213430B60FEF700FA00
:1040B0000546744B1B6813F0040F40F0AD80FEF70B
:1040C000F7F9401B0228F4D90320EEE26D4A136889
:1040D00043F48033136063682BB3FEF7E9F90546B8
:1040E000684B1B6813F4003FC9D1FEF7E1F9401B90
:1040F0006428F5D90320D8E2B3F5A02F09D0614B8D
:104100001A6822F480321A601A6822F480221A6037
:10411000E1E75C4B1A6842F480221A601A6842F4A4
:1041200080321A60D7E7FEF7C3F90546554B1B6886
:1041300013F4003FA3D0FEF7BBF9401B6428F5D968
:104140000320B2E212F0030FA6D14E4B1B6813F00E
:10415000040F03D0E368002B00F0A282494A1368E1
:1041600023F01903E1680B431360FEF7A1F905463C
:10417000444B1B6813F0040F06D1FEF799F9401B5E
:104180000228F5D9032090E2FEF7ACF941F20303CF
:10419000984212D82269402A07D03A494B6823F442
:1041A0007C3343EA02334B600FE0364A536823F412
:1041B0007C3343F40033536007E0324A536823F002
:1041C000FE43216943EA01635360236813F0100F33
:1041D00000F088802B4A136903F03803926A082B99
:1041E00056D0182B50D0E369002B00F0B880254A38
:1041F000136843F080031360FEF75AF90546214B1C
:104200001B6813F4807F40F08880FEF751F9401B53
:104210000228F4D9032048E2FEF764F941F20303CF
:10422000984212D82269402A07D016494B6823F4D5
:104230007C3343EA02334B60C7E7124A536823F4E6
:104240007C3343F400335360BFE70E4A536823F0D6
:10425000FE43216943EA01635360B6E7094A1368E4
:1042600023F001031360FEF723F90546054B1B6895
:1042700013F0040FA9D0FEF71BF9401B0228F5D953
:10428000032012E20044025802F00302012AAAD1DC
:10429000A14B1B6813F4807F03D0E369802B40F0AF
:1042A0000182FEF71FF941F20303984212D8226AF5
:1042B000202A07D098494B6823F0F84343EA8263E9
:1042C0004B600FE0944A536823F0F84343F0804377
:1042D000536007E0904AD36823F07C53216A43EA95
:1042E0000163D360236813F0080F60D06369002B6B
:1042F00049D0894A536F43F001035367FEF7D8F85A
:104300000546854B5B6F13F0020F50D1FEF7D0F8D6
:10431000401B0228F5D90320C7E1FEF7E3F841F27C
:104320000303984212D8226A202A07D07A494B68A0
:1043300023F0F84343EA82634B60D3E7764A53683D
:1043400023F0F84343F080435360CBE7724AD368CD
:1043500023F07C53216A43EA0163D360C2E76E4ACB
:10436000136823F080031360FEF7A2F805466A4B3A
:104370001B6813F4807FB5D0FEF79AF8401B022823
:10438000F5D9032091E1644A536F23F00103536789
:10439000FEF78EF80546604B5B6F13F0020F06D0F8
:1043A000FEF786F8401B0228F5D903207DE123683B
:1043B00013F0200F29D0A3699BB1574A136843F427
:1043C00080531360FEF774F80546534B1B6813F4D3
:1043D000005F1AD1FEF76CF8401B0228F5D90320C4
:1043E00063E14D4A136823F480531360FEF760F8CD
:1043F0000546494B1B6813F4005F06D0FEF758F8DA
:10440000401B0228F5D903204FE1236813F0040F65
:1044100021D1636A002B00F047813F4A126902F004
:104420003802182A00F0EE80022B79D03A4A13683D
:1044300023F080731360FEF73BF80446364B1B688D
:1044400013F0007F00F0DC80FEF732F8001B02283A
:10445000F4D9032029E1314A136843F480731360CF
:10446000FEF726F805462D4B1B6813F4807F06D116
:10447000FEF71EF8401B6428F5D9032015E1A36858
:10448000012B0AD00BBB244B1A6F22F001021A67D2
:104490001A6F22F004021A6704E01F4A136F43F0F8
:1044A00001031367A36833B3FEF702F805461A4BFE
:1044B0001B6F13F0020FACD1FDF7FAFF401B41F266
:1044C00088339842F3D90320EFE0052B09D0124B33
:1044D0001A6F22F001021A671A6F22F004021A679B
:1044E000E0E70D4B1A6F42F004021A671A6F42F0B0
:1044F00001021A67D6E7FDF7DBFF0546064B1B6F87
:1045000013F0020F85D0FDF7D3FF401B41F2883333
:104510009842F3D90320C8E00044025800480258EA
:10452000694A136823F080731360FDF7C1FF0546E5
:10453000654B1B6813F0007F06D0FDF7B9FF401BE9
:104540000228F5D90320B0E05F4B996A5F4A0A4020
:10455000A16AE06A41EA00110A439A62226B013AB9
:10456000C2F30802616B0139490289B20A43A16BA7
:104570000139090401F4FE010A43E16B013909061E
:1045800001F0FE410A431A63DA6A22F00102DA629C
:10459000596B4F4A0A40A16C42EAC1025A63DA6A77
:1045A00022F00C02216C0A43DA62DA6A22F002027B
:1045B000616C0A43DA62DA6A42F48032DA62DA6AF9
:1045C00042F40032DA62DA6A42F48022DA62DA6AAB
:1045D00042F00102DA621A6842F080721A60FDF756
:1045E00067FF0446384B1B6813F0007F06D1FDF7C8
:1045F0005FFF001B0228F5D9032056E0002054E09D
:10460000002052E0304A916A106B012B4ED001F02D
:104610000303A26A93424BD1C1F30511E36A9942A5
:1046200048D1C0F30802236B013B9A4244D1C0F346
:104630004622636B013B9A4240D1C0F30642A36B12
:10464000013B9A423CD1C0F30660E36B013B9842C8
:1046500038D11D4B5B6BC3F3CC03A26C9A4201D1E2
:10466000002022E0184AD36A23F00103D362FDF749
:104670001FFF0546FDF71CFFA842FBD0124A516BF5
:10468000134B0B40A16C43EAC1035363D36A43F05D
:104690000103D362002008E001207047012004E0FC
:1046A000012002E0012000E0002038BD0120FCE7ED
:1046B0000120FAE70120F8E70120F6E70120F4E7FE
:1046C0000120F2E70120F0E7004402580CFCFFFF54
:1046D0000700FFFF744B1B6903F03803102B00F039
:1046E000DE80182B10D00BB1704870476E4B1B68E2
:1046F00013F0200F00F0D5806B4B1868C0F3C10099
:104700006B4B23FA00F0704710B4674A916A01F0CE
:104710000301946AC4F30510D36A03F0010C536BD0
:10472000C3F3CC030CFB03F307EE903AF8EE677A81
:1047300014F47C7F00F09380012965D0022900F0F9
:104740009180E1B107EE100AF8EE476A9FED596AD1
:1047500086EE267A544B1B6BC3F3080306EE903AA1
:10476000F8EE666A9FED546A67EE867A76EEA77A6F
:10477000F7EE006A77EEA67A27EE277A60E01368F4
:1047800013F0200F23D011461268C2F3C102484B28
:10479000D34007EE103AF8EE476A07EE100AB8EE7B
:1047A000476A86EE867A0B6BC3F3080306EE903AEF
:1047B000F8EE666A9FED406A67EE867A76EEA77A33
:1047C000F7EE006A77EEA67A27EE277A38E007EE52
:1047D000100AF8EE476A9FED396A86EE267A324B68
:1047E0001B6BC3F3080306EE903AF8EE666A9FED82
:1047F000326A67EE867A76EEA77AF7EE006A77EE8F
:10480000A67A27EE277A1BE007EE100AF8EE476A31
:104810009FED286A86EE267A234B1B6BC3F30803B1
:1048200006EE903AF8EE666A9FED236A67EE867AA6
:1048300076EEA77AF7EE006A77EEA67A27EE277A69
:10484000194B1B6BC3F34623013307EE903AF8EE86
:10485000677AC7EE276AFCEEE67A17EE900A5DF8F3
:10486000044B704707EE100AF8EE476A9FED146A92
:1048700086EE267A0C4B1B6BC3F3080306EE903AC8
:10488000F8EE666A9FED0C6A67EE867A76EEA77A96
:10489000F7EE006A77EEA67A27EE277AD0E7094886
:1048A00070470348704700BF0044025800093D00AC
:1048B0000090D0030024744A000000390024744C96
:1048C00020BCBE4B40787D01002800F0328170B5DD
:1048D0000D4604469B4B1B6803F00F038B420BD223
:1048E000984A136823F00F030B431360136803F017
:1048F0000F038B4240F01F81236813F0040F0CD08C
:104900002269914B9B6903F070039A4205D98E4945
:104910008B6923F070031A438A61236813F0080F30
:104920000CD06269884BDB6903F070039A4205D9A9
:104930008549CB6923F070031A43CA61236813F0D9
:10494000100F0CD0A269804BDB6903F4E0639A423C
:1049500005D97D49CB6923F4E0631A43CA61236812
:1049600013F0200F0CD0E269774B1B6A03F0700341
:104970009A4205D974490B6A23F070031A430A62FC
:10498000236813F0020F0CD0E2686F4B9B6903F0B1
:104990000F039A4205D96C498B6923F00F031A4320
:1049A0008A61236813F0010F41D0674A936923F4A9
:1049B0007063A1680B4393616368022B0AD0032BD9
:1049C00027D0012B2CD0604A126812F0040F06D1B8
:1049D0000120ADE0126812F4003F00F0AE805A49A9
:1049E0000A6922F0070213430B61FDF761FD0646D9
:1049F000554B1B6903F038036268B3EBC20F16D046
:104A0000FDF756FD801B41F288339842F0D9032010
:104A10008EE04D4A126812F0007FE0D1012087E05D
:104A2000494A126812F4807FD9D1012080E02368BE
:104A300013F0020F0CD0E268434B9B6903F00F03A5
:104A40009A4205D240498B6923F00F031A438A61C9
:104A50003C4B1B6803F00F03AB420AD9394A136879
:104A600023F00F032B431360136803F00F03AB42D3
:104A700065D1236813F0040F0CD02269324B9B6977
:104A800003F070039A4205D22F498B6923F070031B
:104A90001A438A61236813F0080F0CD062692A4B0D
:104AA000DB6903F070039A4205D22749CB6923F0F2
:104AB00070031A43CA61236813F0100F0CD0A26967
:104AC000214BDB6903F4E0639A4205D21E49CB69AE
:104AD00023F4E0631A43CA61236813F0200F0CD05B
:104AE000E269194B1B6A03F070039A4205D216491A
:104AF0000B6A23F070031A430A62FFF7EBFD1249B9
:104B00008B69C3F30323114AD35C03F01F03D8401E
:104B10008B6903F00F03D35C03F01F0320FA03F348
:104B20000B4A13600B4B18600B4B1868FDF720FA0B
:104B300070BD012070470120FAE70120F8E701204D
:104B4000F6E700BF00200052004402589818019078
:104B500004000024000000240C00002408B5FFF726
:104B6000B9FD0B4A9369C3F303230A49CB5C03F0F5
:104B70001F0320FA03F3926902F00F02885C00F031
:104B80001F0023FA00F0044A1060044A136008BDB5
:104B900000440258981801900400002400000024EA
:104BA00008B5FFF7DBFF054BDB69C3F30213044ACB
:104BB000D35C03F01F03D84008BD00BF0044025877
:104BC0009818019008B5FFF7C9FF054BDB69C3F3DF
:104BD0000223044AD35C03F01F03D84008BD00BF82
:104BE00000440258981801903F230360114B1A6942
:104BF00002F0070242609A6902F4706282609A6968
:104C000002F00F02C2609A6902F070020261DA6972
:104C100002F070024261DA6902F4E06282611B6AAA
:104C200003F07003C361044B1B6803F00F030B60B8
:104C3000704700BF0044025800200052404B9B6A5E
:104C400003F00303032B79D070B505460E463C4AAA
:104C5000136823F080631360FDF72AFC0446384B89
:104C60001B6813F0006F06D0FDF722FC031B022B1C
:104C7000F5D9032070BD324B9A6A22F47C32296840
:104C800042EA01329A626A68013AC2F30802A968EC
:104C90000139490289B20A43E9680139090401F47A
:104CA000FE010A4329690139090601F0FE410A4360
:104CB0009A63DA6A22F0C00269690A43DA62DA6A40
:104CC00022F02002A9690A43DA62DA6A22F01002AD
:104CD000DA62D96B1B4A0A40E96942EAC102DA6327
:104CE000DA6A42F01002DA62C6B91A46DB6A43F4A5
:104CF0000023D362124A136843F080631360FDF708
:104D0000D7FB04460E4B1B6813F0006F14D1FDF760
:104D1000CFFB001B0228F5D90320ABE7012E05D0FD
:104D2000074AD36A43F40013D362E3E7044AD36A21
:104D300043F48013D362DDE700209BE70120704736
:104D4000004402580700FFFF404B9B6A03F0030337
:104D5000032B79D070B505460E463C4A136823F004
:104D600080531360FDF7A4FB0446384B1B6813F017
:104D7000005F06D0FDF79CFB031B022BF5D9032037
:104D800070BD324B9A6A22F07C72296842EA015265
:104D90009A626A68013AC2F30802A96801394902B5
:104DA00089B20A43E9680139090401F4FE010A43A2
:104DB00029690139090601F0FE410A431A64DA6AD9
:104DC00022F4406269690A43DA62DA6A22F4007204
:104DD000A9690A43DA62DA6A22F48072DA62596CEB
:104DE0001B4A0A40E96942EAC1025A64DA6A42F49B
:104DF0008072DA62C6B91A46DB6A43F48003D36272
:104E0000124A136843F080531360FDF751FB0446C8
:104E10000E4B1B6813F0005F14D1FDF749FB001B1C
:104E20000228F5D90320ABE7012E05D0074AD36A43
:104E300043F08073D362E3E7044AD36A43F4000388
:104E4000D362DDE700209BE7012070470044025851
:104E50000700FFFFF8B50446036813F0006F30D079
:104E6000836EB3F5001F26D00ED8EBB1B3F5801FCB
:104E700007D102210830FFF7E1FE054645B12E4675
:104E800021E0012635461EE0B3F5401F09D100257B
:104E9000984A136D23F44013A16E0B43136500264B
:104EA00011E0012635460EE0924AD36A43F40033FE
:104EB000D3620025ECE702212830FFF745FF0546C5
:104EC000DCE700263546236813F4807F14D0A36DF9
:104ED000042B32D8DFE803F003232A080800854AB0
:104EE000D36A43F40033D36255BB824A136D23F077
:104EF0000703A16D0B431365236813F4007F31D0C2
:104F0000E36D802B4CD020D8002B43D0402B19D1FF
:104F1000002104F10800FFF791FE05461AE0002188
:104F200004F10800FFF78AFE0546DDE7002104F1E1
:104F30002800FFF709FF0546D6E701263546DBE7DF
:104F40002E46D9E7012635460CE0C02B02D0B3F53A
:104F5000807F1CD15DBB674A136D23F4E073E16D64
:104F60000B431365236813F4806F46D0D4F8A83040
:104F7000B3F5800F39D01FD88BB3B3F5001F18D10C
:104F8000002104F10800FFF759FE05461AE001264A
:104F90003546E7E7574AD36A43F40033D362D9E78B
:104FA000002104F12800FFF7CFFE0546D2E72E4688
:104FB000D8E70126354620E0B3F5C00F02D0B3F59F
:104FC000000F09D1C5B94B4A936D23F46003D4F89F
:104FD000A8100B43936510E0012635460DE0454AC5
:104FE000D36A43F40033D362ECE7002104F12800D4
:104FF000FFF7AAFE0546E5E72E46236813F4006F87
:1050000024D0D4F8AC30B3F1007F42D00ED8002BBE
:1050100039D0B3F1807F06D1002104F10800FFF7F9
:105020000DFE054608E0012635460FE0B3F1407F4E
:1050300002D0B3F1806F23D1002D31D12D4A936D71
:1050400023F0E063D4F8AC100B439365236813F0AE
:10505000007F2ED0E36C202B40D026D833B1102B0C
:1050600020D1244AD36A43F40033D362002D3CD1CB
:10507000204AD36C23F03003E16C0B43D36418E077
:1050800001263546E2E71B4AD36A43F40033D36274
:10509000D2E7002104F12800FFF756FE0546CBE7D2
:1050A0002E46D3E70126354603E0302BDED001261D
:1050B0003546236813F4805F2DD0236EB3F5005F6F
:1050C0004FD019D8002B46D0B3F5805F0FD1002107
:1050D00004F10800FFF7B2FD054613E0022104F1D8
:1050E0000800FFF7ABFD0546C0E72E46E1E70126C5
:1050F000354610E000440258B3F5405F02D0B3F5E6
:10510000804F25D1002D33D1774A136D23F4E0432E
:10511000216E0B431365236813F4005F38D0636E70
:10512000B3F5003F53D028D843B1B3F5803F21D128
:10513000012104F10800FFF781FD0546002D4DD146
:10514000694A136D23F4E023616E0B4313651FE07E
:1051500001263546DFE7644AD36A43F40033D3625D
:10516000D0E7002104F12800FFF7EEFD0546C9E76E
:105170002E46D0E7012635460AE0B3F5802FDDD074
:10518000B3F5A02FDAD0B3F5403FD7D0012635468E
:10519000236813F4804F31D0D4F8B030B3F1005FFE
:1051A00045D020D843B1B3F1805F19D1012104F17A
:1051B0000800FFF743FD0546002D3FD14A4A936D95
:1051C00023F0E043D4F8B0100B43936516E00121BF
:1051D00004F12800FFF7B8FD0546AFE72E46D7E7F4
:1051E000012635460AE0B3F1804FE5D0B3F1A04F78
:1051F000E2D0B3F1405FDFD001263546236813F4D7
:10520000004F09D0236FB3F1805F19D0B3F1005F75
:1052100024D0D3B101263546236813F0807F33D0E4
:10522000A36C032B5BD8DFE803F02722532701216F
:1052300004F12800FFF788FD0546BDE72E46DDE7AF
:10524000294AD36A43F40033D36275B9264A136DF1
:1052500023F04053216F0B431365DDE7012104F177
:105260000800FFF7EBFC0546EFE72E46D4E71E4AA1
:10527000D36A43F40033D362A5BB1B4AD36C23F03B
:105280000303A16C0B43D364236813F4800F2DD167
:10529000236813F0010F00F0A580E36F282B00F2C4
:1052A0009F80DFE803F08D9D9D9D9D9D9D9D879D29
:1052B0009D9D9D9D9D9D969D9D9D9D9D9D9D8D9D35
:1052C0009D9D9D9D9D9D8D9D9D9D9D9D9D9D8D00CB
:1052D000022104F10800FFF7B1FC0546CCE70126E6
:1052E0003546D1E72E46CFE700440258914A13686D
:1052F00043F480731360FDF7DBF807468D4B1B68A2
:1053000013F4807F05D1FDF7D3F8C01B6428F5D9CD
:105310000325002D4AD1884B1B6FD4F8B42053408D
:1053200013F4407F0CD0844B1A6F22F44072196F33
:1053300041F480311967196F21F4803119671A67B8
:10534000D4F8B430B3F5807F15D08DBBD4F8B43029
:1053500003F44072B2F5407F1ED0774A136923F4FC
:105360007C53136174490B6FD4F8B420C2F30B0261
:1053700013430B678CE7FDF79BF807466E4B1B6FDB
:1053800013F0020FE1D1FDF793F8C01B41F288330F
:105390009842F3D90325D8E76748026922F47C5282
:1053A000664901EA131313430361DBE72E466FE7F7
:1053B0002E466DE7012104F10800FFF73FFC05468A
:1053C000E5B95D4A536D23F03803E16F0B43536534
:1053D00008E0012104F12800FFF7B6FC0546EFE7DD
:1053E00001263546236813F0020F17D0A36F052B53
:1053F00028D8DFE803F00B05200B0B0B2E46F1E756
:10540000012104F10800FFF719FC0546EDB94A4AED
:10541000536D23F00703A16F0B435365236813F00B
:10542000040F23D0D4F89430052B45D8DFE803F0DF
:10543000150F3D151515012104F12800FFF784FC17
:105440000546E3E701263546E8E72E46E6E7012173
:1054500004F10800FFF7F2FB054685BB364A936D61
:1054600023F00703D4F894100B439365236813F0DB
:10547000200F34D0D4F89030B3F1005F4ED023D851
:1054800043B1B3F1805F1CD1002104F10800FFF7A4
:10549000D5FB0546002D48D1274A536D23F0E04344
:1054A000D4F890100B43536519E0012104F1280052
:1054B000FFF74AFC0546D0E701263546D6E72E46DB
:1054C000D4E7012635460AE0B3F1804FE2D0B3F1CC
:1054D000A04FDFD0B3F1405FDCD001263546236812
:1054E00013F0400F37D0D4F89C30B3F5006F53D091
:1054F00026D843B1B3F5806F19D1002104F108001B
:10550000FFF79CFB0546002D4DD10B4A936D23F40C
:10551000E053D4F89C100B4393651CE0022104F186
:105520002800FFF711FC0546B4E72E46D7E7012611
:10553000354610E00048025800440258CFFFFF00F3
:10554000B3F5805FDFD0B3F5A05FDCD0B3F5406F7B
:10555000D9D001263546236813F0800F33D0D4F814
:10556000A030B3F5804F00F0A38021D843B1B3F54C
:10557000005F1AD1002104F10800FFF75FFB054628
:10558000002D40F09C80814A936D23F46043D4F851
:10559000A0100B43936516E0022104F12800FFF7E9
:1055A000D3FB0546AFE72E46D5E7012635460AE090
:1055B000B3F5004FE4D0B3F5204FE1D0B3F5C04FC1
:1055C000DED001263546236813F0080F0CD0D4F83E
:1055D0008430B3F5805F74D06C4A536D23F440532C
:1055E000D4F884100B435365236813F0100F0CD0CC
:1055F000D4F89830B3F5807F6CD0644A936D23F46F
:105600004073D4F898100B439365236813F4002F6C
:105610000BD0D4F8A430B3F5803F74D0B3F5003F7D
:1056200067D0002B5FD001263546236813F4802F06
:105630000CD0D4F88830B3F5001F7CD0B3F5401FF0
:105640006FD0B3F5801F67D001263546236813F469
:10565000803F08D0236D002B76D0B3F5803F00F05B
:10566000818001263546236813F0005F40F0838077
:10567000236813F4003F00F08E80D4F88030B3F537
:10568000807F00F0EC8040F28380B3F5007F03D090
:10569000B3F5407F40F0E180002D40F0E6803B4ACA
:1056A000536D23F44073D4F880100B43536572E0BC
:1056B000022104F12800FFF747FB054660E72E466C
:1056C00081E7022104F12800FFF73EFB002883D088
:1056D000012681E7022104F12800FFF735FB0028AD
:1056E0008BD0012689E7002104F10800FFF7A6FA14
:1056F00005467DB9254A936D23F44033D4F8A410B0
:105700000B43936591E7022104F12800FFF71CFB8E
:105710000546EEE72E4688E71C4AD36A43F4003379
:10572000D3627DB9194A536D23F44013D4F888101D
:105730000B4353658AE7012104F12800FFF704FBBE
:105740000546EEE72E4681E7104AD36A43F400335C
:10575000D36275B90D4AD36C23F48033216D0B43AA
:10576000D36480E7022104F10800FFF767FA0546D9
:10577000EFE72E4677E7022104F12800FFF7E4FA6D
:1057800000283FF475AF012672E700BF00440258BD
:10579000002B81D00126236813F4801F06D04F4AC6
:1057A000136D23F00043616F0B431365236813F0FF
:1057B000805F07D0494A136923F48043D4F8B810B6
:1057C0000B431361236813F4001F06D0434A136D83
:1057D00023F08073E16E0B431365236813F0804F51
:1057E00009D03E4B1A6922F400421A611A69D4F8B2
:1057F000BC100A431A612368002B06DA374AD36CBF
:1058000023F04053616D0B43D364236813F4000FFE
:1058100007D0324A536D23F44003D4F88C100B4365
:105820005365636813F0010F21D1636813F0020F11
:1058300026D1636813F0040F2BD1636813F0080FAF
:1058400030D1636813F0100F35D1636813F0200F67
:105850003AD106B101263046F8BD01269BE71F4A22
:10586000D36A43F40033D36216E72E4693E7002150
:1058700004F10800FFF7E2F90028D6D00646D4E785
:10588000012104F10800FFF7D9F90028D1D006461C
:10589000CFE7022104F10800FFF7D0F90028CCD0AF
:1058A0000646CAE7002104F12800FFF74DFA002858
:1058B000C7D00646C5E7012104F12800FFF744FAE6
:1058C0000028C2D00646C0E7022104F12800FFF7F5
:1058D0003BFA0028BDD00646BBE700BF0044025893
:1058E00008B5FFF73BF9054B1B6AC3F30213044AE3
:1058F000D35C03F01F03D84008BD00BF004402582A
:105900009818019010B5774A916A946AC4F3053EDD
:10591000D36AC3F3001CD36BC3F3CC030CFB03F3B8
:1059200014F47C3F00F0D88001F0030107EE903AB8
:10593000F8EE677A012965D0022900F0B080E1B164
:1059400007EE10EAB8EE477A9FED676AC6EE076A7F
:10595000644B9B6BC3F3080307EE103AB8EE477A2B
:105960009FED626A67EE867A77EE277AB7EE007A65
:1059700077EE877A66EEA76A60E0136813F0200F6F
:1059800023D011461268C2F3C102594BD34007EE2F
:10599000103AB8EE477A06EE90EAB8EE666AC7EEBD
:1059A000066A8B6BC3F3080307EE103AB8EE477A2A
:1059B0009FED4E6A67EE867A77EE277AB7EE007A29
:1059C00077EE877A66EEA76A38E007EE10EAB8EE5F
:1059D000477A9FED486AC6EE076A424B9B6BC3F35A
:1059E000080307EE103AB8EE477A9FED406A67EE7B
:1059F000867A77EE277AB7EE007A77EE877A66EEC8
:105A0000A76A1BE007EE10EAB8EE477A9FED366A08
:105A1000C6EE076A334B9B6BC3F3080307EE103ADD
:105A2000B8EE477A9FED316A67EE867A77EE277A8D
:105A3000B7EE007A77EE877A66EEA76A294A936B0B
:105A4000C3F3462307EE103AB8EE477AB7EE006A82
:105A500037EE067AC6EE877AFCEEE77AC0ED007A7A
:105A6000936BC3F3064307EE103AB8EE477A37EE6E
:105A7000067AC6EE877AFCEEE77AC0ED017A936B80
:105A8000C3F3066307EE903AF8EE677A77EE867A0C
:105A900086EEA77ABCEEC77A80ED027A10BD07EEDB
:105AA00010EAB8EE477A9FED146AC6EE076A0D4B0E
:105AB0009B6BC3F3080307EE103AB8EE477A9FEDED
:105AC0000B6A67EE867A77EE277AB7EE007A77EE82
:105AD000877A66EEA76AB1E70023036043608360BC
:105AE000DCE700BF004402580024744A000000397B
:105AF0000090D0030024744C20BCBE4B10B5774AF4
